:100000000A308A00CF2A0000FF00030E8301A100FE
:100010000A08A0008A010408A2007708A300780853
:10002000A4007908A5007A08A60003170D08031399
:10003000A70003170F080313A80003170C080313E6
:10004000A90003170E080313AA00831383128C3030
:100050008400001C2D280C184E2822088400230838
:10006000F7002408F8002508F9002608FA002708F8
:1000700003178D000313280803178F0003132908A3
:1000800003178C0003132A0803178E00031320089C
:100090008A00210E8300FF0E7F0E09008A110A12CA
:1000A000AC28D434ED322000DF2F801E3A00DF2F41
:1000B00000013A00DF2F0001C430F4322000DF2FAE
:1000C0005F00D33A6E00CD376E00D43A6500D73268
:1000D00064005434750046396900D3307400200040
:1000E000DF2F00012D00DF2F00012D00DF2F00008A
:1000F0002010201020102010201020102010201080
:1001000020100001DF2F5F004F2720004F23460003
:100110002010201020102000DF2F00013A00DF2FD8
:1001200000013A00DF2F000120100000202AE536F0
:100130007010000143002024F536691000012500ED
:100140002022482AB1180001A025C827CE23202844
:10015000C8204E10C82749008E010B308F00DC30BC
:100160008E00BC0A0C108A110A122D284F2346005B
:100170000830F8000430F700F70BBC288711AB11EA
:100180002B08831687000330F700F70BC52883126E
:10019000C80D0712031CD2282B162B0883168700C4
:1001A000D62883122B122B08831687000000831297
:1001B000AB152B08831687008312871DDD28F80BEB
:1001C000BA280430F700F70BE3288711AB112B088E
:1001D00083168700000083122B162B0883168700D6
:1001E0000330F700F70BF2280330F700F70BF6287F
:1001F0008312AB152B08831687008312871DFE28F8
:10020000F8010330F700F70B0329071A7814871158
:10021000AB112B0883168700831207122B122B08B1
:1002200083168700831208000830C5007708C600CF
:100230002B162B08831687000330F700F70B1E29B7
:100240008312AB152B08831687008312871D26297E
:10025000071A0314071E0310F80D0430F700F70BFC
:100260002F29AB112B088316870083128711C50B2A
:1002700018292B162B08831687000330F700F70B7D
:100280003F2983120712460803194B292B122B080A
:100290008316870083120000AB152B088316870096
:1002A0008312871D51290430F700F70B5529871158
:1002B000AB112B08831687000330F700F70B5E297C
:1002C000831207122B122B08831687008312080053
:1002D0004508C6000310C60C7830C605460CF7006A
:1002E000F70C3F30F70577084607C70045080F3978
:1002F0004707F80008004708C800C9014808093C3A
:10030000031887290A30C8021030C9078A2948080B
:10031000C9078B297E294908F8000800BE012B1661
:100320002B08831687000430F700F70B95298312FA
:10033000AB152B08831687000330F700F70B9E29B7
:10034000831207122B122B08831687000430F70044
:10035000F70BA82983128711AB112B08831687008E
:10036000D0308312C800B820C801B8202B162B0843
:10037000831687000430F700F70BBC298312AB15F6
:100380002B08831687000330F700F70BC52983126B
:10039000871DC82907122B122B08831687000430EB
:1003A000F700F70BD12983128711AB112B088316A5
:1003B0008700D1308312C800B820F70114217808D3
:1003C000BF00C50068217808BE002B122B088316D9
:1003D000870000008312AB152B0883168700831259
:1003E000871DF0290430F700F70BF429F7290000E6
:1003F0002B162B08831687000430F700F70BFE2915
:100400008312BE130430F700F70B042A072A2B16B9
:100410002B08831687000430F700F70B0D2A831290
:10042000AB152B08831687000330F700F70B162A4D
:10043000831207122B122B08831687000430F70053
:10044000F70B202A83128711AB112B088316870024
:10045000D0308312C800B820C801B8203E08C700B9
:100460007B217808BF00C800B8202B162B08831604
:1004700087000430F700F70B3B2A8312AB152B08DB
:10048000831687000330F700F70B442A8312871D79
:10049000472A07122B122B08831687000430F70017
:1004A000F70B502A83128711AB112B088316870094
:1004B000D0308312C800B8200730C800B820803080
:1004C000C800B8202B122B08831687000000831267
:1004D000AB152B08831687008312871D6D2A043005
:1004E000F700F70B712A742A00002B162B088316CD
:1004F00087000430F700F70B7B2A83128A150A1253
:10050000F82A8316091083120910831688018312B2
:100510004108880083160911831209115230F7002F
:10052000F70B902A932A00008316091183120915EC
:100530005230F700F70B9A2A9D2A000008003E303F
:100540008400831300080319B22A0630F800F7016B
:10055000F70BA82AF80BA72A7B30F700F70BAE2A77
:10056000800BA52A08008316091083120910831630
:100570008910831289108316091183120911013021
:10058000C10081220130BE009F220630C1008122BD
:100590000130BE009F220C30C10081220130BE001C
:1005A0009F223830C10081220130BE009F228A156F
:1005B0000A12FB2A83160910831209148316880174
:1005C00083124408880083160911831209115230DE
:1005D000F700F70BE92AEC2A0000831609118312B1
:1005E00009155230F700F70BF32AF62A000008002D
:1005F0000B08C1008B13831603178C170C14000013
:10060000000083120313C11B8B1703170C087F39DB
:1006100003194C2B0313C10003170D080313C20069
:1006200003170F080313C3004108C400DA2242086D
:1006300003178D000313430803178F0003130B08E0
:10064000C4008B13831603178C170C1400000000D2
:1006500083120313C41B8B1703170C0D0E0D7F3968
:1006600003194C2B0313C10003170D080313C20019
:1006700003170F080313C3004108C400DA2242081D
:1006800003178D000313430803178F008D0A031906
:100690008F0A0313F82A0317031308004208F8010E
:1006A00041020318562B4108F700622BF70108306E
:1006B000C300C10DF70D420877020318F700F80DCB
:1006C000C30B592B08008030C10081225130031721
:1006D0008D0000308F000313F822400B772B54302D
:1006E00003178D0000308F000313F8228B2B310885
:1006F000C1000A30C2004E2330307807C100C40068
:10070000DA223108C1000A30C2004E2330307707A8
:10071000C100C400DA22563003178D0000308F006C
:100720000313F8224008023C031D9E2B5730031789
:100730008D0000308F000313F822B22B3208C10065
:100740000A30C2004E2330307807C100C400DA22DC
:100750003208C1000A30C2004E2330307707C10092
:10076000C400DA22593003178D0000308F000313C4
:10077000F8224008033C031DC52B5A3003178D0097
:1007800000308F000313F822D92B3308C1000A3040
:10079000C2004E2330307807C100C400DA2233088B
:1007A000C1000A30C2004E2330307707C100C400B8
:1007B000DA22C030C10081225C3003178D00003086
:1007C0008F000313F8224008043C031DEF2B5F3019
:1007D00003178D0000308F000313F8222D2C0130F9
:1007E0002D02F93E03182D2C073EA32C6130031770
:1007F0008D0000308F000313F8222D2C6330031777
:100800008D0000308F000313F8222D2C6530031764
:100810008D0000308F000313F8222D2C6730031752
:100820008D0000308F000313F8222D2C6930031740
:100830008D0000308F000313F8222D2C6B3003172E
:100840008D0000308F000313F8222D2C6D3003171C
:100850008D0000308F000313F8226F3003178D00D6
:1008600000308F000313F8224008053C031D402C84
:10087000703003178D0000308F000313F822542CC2
:100880002E08C1000A30C2004E2330307807C10064
:10089000C400DA222E08C1000A30C2004E233030D4
:1008A0007707C100C400DA22723003178D000030D0
:1008B0008F000313F8224008063C031D672C733099
:1008C00003178D0000308F000313F8227B2C2F08B4
:1008D000C1000A30C2004E2330307807C100C40086
:1008E000DA222F08C1000A30C2004E2330307707C9
:1008F000C100C400DA22753003178D0000308F006C
:100900000313F8224008073C031D8E2C7630031792
:100910008D0000308F000313F822A22C3008C10094
:100920000A30C2004E2330307807C100C400DA22FA
:100930003008C1000A30C2004E2330307707C100B2
:10094000C400DA2208000A108A100A158207F62B62
:10095000FE2B062C0E2C162C1E2C262C83168713F1
:10096000831287171E30BE009F2287131230BE00ED
:100970009F2287175230F700F70BBC2CBF2C0000CA
:10098000831687178312871FC72CAC01C92C871FBA
:10099000C72C6330F700F70BCB2CCE2C871BD22C47
:1009A000AC01D42C0130AC00871BD42C2C0B692D4E
:1009B000C101C201C301C401C501BE013E08043C1E
:1009C000031C0A2DBF013F08073C031C082D871F8D
:1009D000E72C5230F700F70BEB2CEE2C0000871FB2
:1009E000062D41303E07840083133F08073CF80082
:1009F0000130F700F8080319012D0310F70DF80B6B
:100A0000FD2C770800048000871B042DBF0AE32C0F
:100A1000BE0ADE2C4208410743074407C0004508D0
:100A20004002031DAC014308B8004408B900410866
:100A3000BA004208BB009430C100812296300317EF
:100A40008D0000308F000313F8223808C1000A30EF
:100A5000C2004E2330307807BE00C400DA223808C6
:100A6000C1000A30C2004E2330307707BE00C400F8
:100A7000DA22DF30C400DA229A3003178D0000300A
:100A80008F000313F822D430C10081229B3003175A
:100A90008D0000308F000313F8223A08C1000A309D
:100AA000C2004E2330307807BE00C400DA223A0874
:100AB000C1000A30C2004E2330307707BE00C400A8
:100AC000DA229F3003178D0000308F000313F822C5
:100AD0007D2D9430C1008122A03003178D0000309D
:100AE0008F000313F822D430C1008122A4300317F1
:100AF0008D0000308F000313F8228A150A12612C32
:100B00008030C1008122783003178D0000308F00C3
:100B10000313F822400B942D823003178D00003010
:100B20008F000313F822A52D370B9E2D8430031759
:100B30008D0000308F000313F822A52D8630031797
:100B40008D0000308F000313F822C030C1008122D5
:100B5000883003178D0000308F000313F8224008FF
:100B6000023C031DBB2D8C3003178D0000308F001D
:100B70000313F822CF2D3408C1000A30C2004E23DF
:100B800030307807C100C400DA223408C1000A30CE
:100B9000C2004E2330307707C100C400DA228E3005
:100BA00003178D0000308F000313F8224008033C28
:100BB000031DE22D8F3003178D0000308F000313CB
:100BC000F822F62D3508C1000A30C2004E2330301D
:100BD0007807C100C400DA223508C1000A30C2001B
:100BE0004E2330307707C100C400DA22913003175A
:100BF0008D0000308F000313F8224008043C031DD1
:100C0000092E923003178D0000308F000313F82255
:100C10001D2E3608C1000A30C2004E23303078073E
:100C2000C100C400DA223608C1000A30C2004E23D7
:100C300030307707C100C400DA22943003178D00EA
:100C400000308F000313F82208000130BE00BF01FE
:100C50003F080E3C031C2F2EC0018025322E3E087B
:100C6000C0008025BF0A3F081D3C031CBF0183163E
:100C7000051583120519672E831605158312051DA8
:100C80003C2EBF0101303E02FC3E0318672E043E9D
:100C9000BA2EB708031D4E2EB70A4F2EB701672E86
:100CA0003408163C031C562EB40A572EB401672E86
:100CB00035083A3C031C5E2EB50A5F2EB501672E3F
:100CC00036083A3C031C662EB60A672EB601831618
:100CD000851583128519982E831685158312851D17
:100CE0006C2EBF0101303E02FC3E0318982E043EDC
:100CF000C22EB70803197E2EB703802E0130B7002D
:100D0000982EB4080319862EB403882E1730B40029
:100D1000982EB50803198E2EB503902E3B30B500E2
:100D2000982EB6080319962EB603982E3B30B600BF
:100D30008316851483128518AB2E831685148312AF
:100D4000851C9D2E0F30BF00BE0A3E08043C0318D0
:100D5000AB2E0130BE00831605168312051AB62E7F
:100D6000831605168312051EB02EB72E282E8A155F
:100D70000A12952C0A108A140A158207492E502E41
:100D8000582E602E0A108A140A158207792E812E99
:040D9000892E912EE9
:101000000130BE00BF012B162B0883168700043069
:10101000F700F70B09288312AB152B0883168700FE
:101020000330F700F70B1228831207122B122B083C
:10103000831687000430F700F70B1C2883128711F2
:10104000AB112B0883168700D0308312C8008A1199
:10105000B8208A15C8018A11B8208A152B162B08CA
:10106000831687000430F700F70B34288312AB1582
:101070002B08831687000330F700F70B3D288312F7
:10108000871D402807122B122B0883168700043077
:10109000F700F70B492883128711AB112B08831631
:1010A0008700D1308312C8008A11B8208A15013018
:1010B000F7008A1114218A1578087F39C000C5000D
:1010C0008A1168218A157808B3000130F7008A1167
:1010D00014218A1578087F39C000C5008A1168215B
:1010E0008A157808B200F7018A1114218A15780848
:1010F0003F39C000C5008A1168218A157808B100FF
:101100002B122B088316870000008312AB152B08C7
:10111000831687008312871D8B280430F700F70B96
:101120008F28922800002B162B0883168700043086
:10113000F700F70B992883122B162B0883168700CC
:101140000430F700F70BA2288312AB152B08831687
:1011500087000330F700F70BAB28831207122B121E
:101160002B08831687000430F700F70BB52883128D
:101170008711AB112B0883168700D0308312C8006B
:101180008A11B8208A150330C8008A11B8208A1540
:101190002B162B08831687000430F700F70BCE2898
:1011A0008312AB152B08831687000330F700F70B6B
:1011B000D7288312871DDA2807122B122B088316D3
:1011C00087000430F700F70BE32883128711AB1177
:1011D0002B0883168700D1308312C8008A11B820EB
:1011E0008A150130F7008A1114218A1578087F3991
:1011F000C000C5008A1168218A157808AD00013049
:10120000F7008A1114218A1578083F39C000C500FB
:101210008A1168218A157808AE000130F7008A111A
:1012200014218A1578081F39C000C5008A11682169
:101230008A157808AF00F7018A1114218A157808F9
:10124000C000C5008A1168218A157808B0002B12E9
:101250002B088316870000008312AB152B0883161A
:1012600087008312871D32290430F700F70B3629D7
:10127000392900002B162B08831687000430F7004D
:10128000F70B402983123F080E3C031C4C29C00178
:101290008A1163238A1551293E08C0008A116323ED
:1012A0008A15BF0A3F081D3C031CBF0183160515A4
:1012B00083120519A229831605158312051D5B29C2
:1012C000BF0101303E02F93E0318A229073EB92AA8
:1012D0003108163C031C6E29B10A6F29B101A229FD
:1012E00032083A3C031C7629B20A7729B201A229B6
:1012F00033083A3C031C7E29B30A7F29B301A22993
:101300002D08063C031C8629AD0A88290130AD0052
:10131000A2292E081E3C031C8F29AE0A91290130F8
:10132000AE00A2292F080B3C031C9829AF0A9A296A
:101330000130AF00A2293008623C031CA129B00A89
:10134000A229B0018316851583128519ED2983160C
:1013500085158312851DA729BF0101303E02F93E84
:101360000318ED29073EC42AB1080319B929B103AE
:10137000BB291730B100ED29B2080319C129B20306
:10138000C3293B30B200ED29B3080319C929B303BF
:10139000CB293B30B300ED292D08013C0318D2299D
:1013A000AD03D4290730AD00ED292E08013C031808
:1013B000DB29AE03DD291F30AE00ED29AF0803198C
:1013C000E329AF03E5290C30AF00ED29B00803197C
:1013D000EB29B003ED296330B00083168514831226
:1013E0008518002A831685148312851CF2290F3074
:1013F000BF00BE0A3E08073C0318002A0130BE00A9
:1014000083160514831205180B2A831605148312FC
:10141000051C052A0C2A43292D08C0002E08C100EE
:101420002F08C2003008C3003108C4003208C500CC
:101430003308C600C6133F30C4052B162B0883168D
:1014400087000430F700F70B232A8312AB152B0813
:10145000831687000330F700F70B2C2A831207123C
:101460002B122B08831687000430F700F70B362A5F
:1014700083128711AB112B0883168700D03083129B
:10148000C8008A11B8208A15C8018A11B8208A15A7
:101490004608C7008A117B218A157808C700C80052
:1014A0008A11B8208A154508C7008A117B218A1540
:1014B0007808C700C8008A11B8208A154408C700F8
:1014C0008A117B218A157808C700C8008A11B820C4
:1014D0008A154008C7008A117B218A157808C70041
:1014E000C8008A11B8208A154108C7008A117B21DB
:1014F0008A157808C700C8008A11B8208A154208E2
:10150000C7008A117B218A157808C700C8008A1194
:10151000B8208A154308C7008A117B218A157808EC
:10152000C700C8008A11B8208A158030C8008A1107
:10153000B8208A152B122B0883168700000083120F
:10154000AB152B08831687008312871DA52A04304C
:10155000F700F70BA92AAC2A00002B162B088316DC
:1015600087000430F700F70BB32A83128A150A129A
:10157000812C0A108A140A11820768297029782997
:101580008029892992299B290A108A140A11820725
:10159000B429BC29C429CC29D529DE29E629030888
:1015A0001F398300FF30AB00AC01B401B501B601B7
:1015B000B701BC01BD01831603170908C0398900B2
:1015C00003131F129F120030031788008312870134
:1015D000880189018313FF308316031385000030CF
:1015E000880009108910091189118A1183128E2926
:1015F0008A158A11B32A8A159130C1008A11812275
:101600008A15B63003178D0000308F008A1103133E
:10161000F8228A15353090008E010B308F00DC30B7
:101620008E00C0308B0483160C1483122B162B08EB
:10163000831687000430F700F70B1C2B8312AB15C1
:101640002B08831687000330F700F70B252B831236
:1016500007122B122B08831687000430F700F70BB4
:101660002F2B83128711AB112B0883168700D030E4
:101670008312C8008A11B8208A15C8018A11B820BF
:101680008A152B162B08831687000430F700F70BFA
:10169000472B8312AB152B08831687000330F70006
:1016A000F70B502B8312871D532B07122B122B087D
:1016B000831687000430F700F70B5C2B8312871129
:1016C000AB112B0883168700D1308312C8008A1112
:1016D000B8208A150130F7008A1114218A1578087C
:1016E0007F39C000C5008A1168218A157808B300C7
:1016F0000130F7008A1114218A1578087F39C0005B
:10170000C5008A1168218A157808B200F7018A118C
:1017100014218A1578083F39C000C5008A11682154
:101720008A157808B1002B122B0883168700000059
:101730008312AB152B08831687008312871D9E2BFF
:101740000430F700F70BA22BA52B00002B162B085B
:10175000831687000430F700F70BAC2B83122B168F
:101760002B08831687000430F700F70BB52B831284
:10177000AB152B08831687000330F700F70BBE2B41
:10178000831207122B122B08831687000430F700F0
:10179000F70BC82B83128711AB112B088316870018
:1017A000D0308312C8008A11B8208A150330C800CF
:1017B0008A11B8208A152B162B088316870004304F
:1017C000F700F70BE12B8312AB152B08831687006C
:1017D0000330F700F70BEA2B8312871DED2B07125E
:1017E0002B122B08831687000430F700F70BF62B1B
:1017F00083128711AB112B0883168700D130831217
:10180000C8008A11B8208A150130F7008A11142106
:101810008A1578087F39C000C5008A1168218A15A9
:101820007808AD000130F7008A1114218A15780874
:101830003F39C000C5008A1168218A157808AE00BA
:101840000130F7008A1114218A1578081F39C00069
:10185000C5008A1168218A157808AF00F7018A113E
:1018600014218A157808C000C5008A1168218A15DC
:101870007808B0002B122B08831687000000831213
:10188000AB152B08831687008312871D452C043067
:10189000F700F70B492C4C2C00002B162B08831655
:1018A00087000430F700F70B532C8312C0018A1114
:1018B00063238A153C08313C0318622CBC018A1151
:1018C000AE2C8A1534083102031D762C35083202FD
:1018D000031D762C36083302031D762C370B762C2D
:1018E00083160611831206150130BD0083160514F8
:1018F00083120518812C831605148312051C7B2C7A
:101900000028831605168312051A962C83160516D1
:101910008312051E862C3D0B932C83160611831211
:101920000611BD01962C8A11252E8A15162B6300EF
:04400E00E22FFF3F5F
:00000001FF
;PIC16F887
;CRC=4E9A  CREATED="15-Nov-18 22:51"
